{
    "contractName": "DivvydendPool",
    "abi": [
        {
            "inputs": [
                {
                    "internalType": "contract IERC20",
                    "name": "_DivydendToken",
                    "type": "address"
                },
                {
                    "internalType": "address",
                    "name": "_admin",
                    "type": "address"
                },
                {
                    "internalType": "contract IERC20",
                    "name": "_rewardToken",
                    "type": "address"
                }
            ],
            "stateMutability": "nonpayable",
            "type": "constructor"
        },
        {
            "anonymous": false,
            "inputs": [
                {
                    "indexed": false,
                    "internalType": "address",
                    "name": "newadmin",
                    "type": "address"
                }
            ],
            "name": "adminSET",
            "type": "event"
        },
        {
            "anonymous": false,
            "inputs": [
                {
                    "indexed": false,
                    "internalType": "address",
                    "name": "from",
                    "type": "address"
                },
                {
                    "indexed": false,
                    "internalType": "uint256",
                    "name": "amount",
                    "type": "uint256"
                }
            ],
            "name": "depositReward",
            "type": "event"
        },
        {
            "anonymous": false,
            "inputs": [
                {
                    "indexed": false,
                    "internalType": "contract IERC20",
                    "name": "newdivydendToken",
                    "type": "address"
                }
            ],
            "name": "newDivydendtoken",
            "type": "event"
        },
        {
            "anonymous": false,
            "inputs": [
                {
                    "indexed": false,
                    "internalType": "contract IERC20",
                    "name": "newrewardToken",
                    "type": "address"
                }
            ],
            "name": "newRewardToken",
            "type": "event"
        },
        {
            "anonymous": false,
            "inputs": [
                {
                    "indexed": false,
                    "internalType": "address",
                    "name": "to",
                    "type": "address"
                },
                {
                    "indexed": false,
                    "internalType": "bool",
                    "name": "withdrawStatus",
                    "type": "bool"
                }
            ],
            "name": "withdrawreward",
            "type": "event"
        },
        {
            "inputs": [
                {
                    "internalType": "uint256",
                    "name": "amount",
                    "type": "uint256"
                }
            ],
            "name": "DepositReward",
            "outputs": [],
            "stateMutability": "nonpayable",
            "type": "function"
        },
        {
            "inputs": [],
            "name": "DivydendToken",
            "outputs": [
                {
                    "internalType": "contract IERC20",
                    "name": "",
                    "type": "address"
                }
            ],
            "stateMutability": "view",
            "type": "function"
        },
        {
            "inputs": [],
            "name": "admin",
            "outputs": [
                {
                    "internalType": "address",
                    "name": "",
                    "type": "address"
                }
            ],
            "stateMutability": "view",
            "type": "function"
        },
        {
            "inputs": [
                {
                    "internalType": "contract IERC20",
                    "name": "newDivydendToken",
                    "type": "address"
                }
            ],
            "name": "changeDivydendToken",
            "outputs": [],
            "stateMutability": "nonpayable",
            "type": "function"
        },
        {
            "inputs": [
                {
                    "internalType": "contract IERC20",
                    "name": "newrewardToken",
                    "type": "address"
                }
            ],
            "name": "changerewardToken",
            "outputs": [],
            "stateMutability": "nonpayable",
            "type": "function"
        },
        {
            "inputs": [],
            "name": "rewardToken",
            "outputs": [
                {
                    "internalType": "contract IERC20",
                    "name": "",
                    "type": "address"
                }
            ],
            "stateMutability": "view",
            "type": "function"
        },
        {
            "inputs": [
                {
                    "internalType": "address",
                    "name": "newadmin",
                    "type": "address"
                }
            ],
            "name": "setAdmin",
            "outputs": [],
            "stateMutability": "nonpayable",
            "type": "function"
        },
        {
            "inputs": [],
            "name": "withdrawReward",
            "outputs": [],
            "stateMutability": "nonpayable",
            "type": "function"
        }
    ],
    "bytecode": "608060405234801561001057600080fd5b50604051610c64380380610c6483398101604081905261002f91610076565b6001600081905580546001600160a01b039485166001600160a01b0319918216179091556003805492851692821692909217909155600280549290931691161790556100da565b60008060006060848603121561008a578283fd5b8351610095816100c2565b60208501519093506100a6816100c2565b60408501519092506100b7816100c2565b809150509250925092565b6001600160a01b03811681146100d757600080fd5b50565b610b7b806100e96000396000f3fe608060405234801561001057600080fd5b50600436106100885760003560e01c8063aac2383a1161005b578063aac2383a146100e6578063c885bc58146100f9578063f7c618c114610101578063f851a4401461010957610088565b8063184b02341461008d57806319d619b1146100ab578063704b6c02146100c05780638897b910146100d3575b600080fd5b610095610111565b6040516100a29190610940565b60405180910390f35b6100be6100b93660046108ef565b610120565b005b6100be6100ce3660046108ac565b610338565b6100be6100e13660046108ac565b6103b3565b6100be6100f43660046108ac565b6104c1565b6100be6105cf565b61009561088e565b61009561089d565b6001546001600160a01b031681565b6002546001600160a01b031633146101535760405162461bcd60e51b815260040161014a90610a10565b60405180910390fd5b6003546040516370a0823160e01b81526000916001600160a01b0316906370a0823190610184903390600401610940565b60206040518083038186803b15801561019c57600080fd5b505afa1580156101b0573d6000803e3d6000fd5b505050506040513d601f19601f820116820180604052508101906101d49190610907565b11806102595750600354604080516318160ddd60e01b8152905183926001600160a01b0316916318160ddd916004808301926020929190829003018186803b15801561021f57600080fd5b505afa158015610233573d6000803e3d6000fd5b505050506040513d601f19601f820116820180604052508101906102579190610907565b115b6102755760405162461bcd60e51b815260040161014a906109e3565b6003546040516323b872dd60e01b81526001600160a01b03909116906323b872dd906102a990339030908690600401610954565b602060405180830381600087803b1580156102c357600080fd5b505af11580156102d7573d6000803e3d6000fd5b505050506040513d601f19601f820116820180604052508101906102fb91906108cf565b507f7db4e28fb28180815b62da3716cb5531397f779522712da61578d547f466041c338260405161032d929190610993565b60405180910390a150565b6002546001600160a01b031633146103625760405162461bcd60e51b815260040161014a90610a10565b600280546001600160a01b0319166001600160a01b0383811691909117918290556040517f8c006dc3eedb7dc917717d39fcfa8c8b6335d332f326e27bc9f56194699d15d49261032d921690610940565b6002546001600160a01b031633146103dd5760405162461bcd60e51b815260040161014a90610a10565b806001600160a01b031663313ce5676040518163ffffffff1660e01b815260040160206040518083038186803b15801561041657600080fd5b505afa15801561042a573d6000803e3d6000fd5b505050506040513d601f19601f8201168201806040525081019061044e919061091f565b60ff166012146104705760405162461bcd60e51b815260040161014a906109ac565b600180546001600160a01b0319166001600160a01b0383811691909117918290556040517f41960a963b45acefbd055fc7a4ddf80ec9868ea890916d0eac1b4a372d6829a09261032d921690610940565b6002546001600160a01b031633146104eb5760405162461bcd60e51b815260040161014a90610a10565b806001600160a01b031663313ce5676040518163ffffffff1660e01b815260040160206040518083038186803b15801561052457600080fd5b505afa158015610538573d6000803e3d6000fd5b505050506040513d601f19601f8201168201806040525081019061055c919061091f565b60ff1660121461057e5760405162461bcd60e51b815260040161014a90610a74565b600380546001600160a01b0319166001600160a01b0383811691909117918290556040517fb2d1e5cb6ef776a3df6278ef2bbd3af6494da6627f4033dbd3adbee88ead8fbe9261032d921690610940565b600260005414156105f25760405162461bcd60e51b815260040161014a90610aab565b600260009081556001546040516370a0823160e01b81526001600160a01b03909116906370a0823190610629903390600401610940565b60206040518083038186803b15801561064157600080fd5b505afa158015610655573d6000803e3d6000fd5b505050506040513d601f19601f820116820180604052508101906106799190610907565b116106965760405162461bcd60e51b815260040161014a90610a3d565b600154604080516318160ddd60e01b815290516000926001600160a01b0316916318160ddd916004808301926020929190829003018186803b1580156106db57600080fd5b505afa1580156106ef573d6000803e3d6000fd5b505050506040513d601f19601f820116820180604052508101906107139190610907565b6001546040516370a0823160e01b81529192506000916001600160a01b03909116906370a0823190610749903390600401610940565b60206040518083038186803b15801561076157600080fd5b505afa158015610775573d6000803e3d6000fd5b505050506040513d601f19601f820116820180604052508101906107999190610907565b905060006107a78383610ae2565b6107b2906064610b02565b6107c490670de0b6b3a7640000610b02565b60035460405163a9059cbb60e01b81529192506001600160a01b03169063a9059cbb906107f79033908590600401610993565b602060405180830381600087803b15801561081157600080fd5b505af1158015610825573d6000803e3d6000fd5b505050506040513d601f19601f8201168201806040525081019061084991906108cf565b507f188570b48a762e83520c9bb7980b2675c04debba7da87cc286ed5f56ebc2035433600160405161087c929190610978565b60405180910390a15050600160005550565b6003546001600160a01b031681565b6002546001600160a01b031681565b6000602082840312156108bd578081fd5b81356108c881610b2d565b9392505050565b6000602082840312156108e0578081fd5b815180151581146108c8578182fd5b600060208284031215610900578081fd5b5035919050565b600060208284031215610918578081fd5b5051919050565b600060208284031215610930578081fd5b815160ff811681146108c8578182fd5b6001600160a01b0391909116815260200190565b6001600160a01b039384168152919092166020820152604081019190915260600190565b6001600160a01b039290921682521515602082015260400190565b6001600160a01b03929092168252602082015260400190565b60208082526018908201527f746f6b656e20646563696d616c206d7573742062652031380000000000000000604082015260600190565b602080825260139082015272195e18d95cdcc81d1bdad95b88185b5bdd5b9d606a1b604082015260600190565b6020808252601390820152721bdb9b1e4818591b5a5b8818d85b8818d85b1b606a1b604082015260600190565b60208082526017908201527f7a65726f206469767920746f6b656e2062616c616e6365000000000000000000604082015260600190565b6020808252601f908201527f72657761726420746f6b656e20646563696d616c206d75737420626520313800604082015260600190565b6020808252601f908201527f5265656e7472616e637947756172643a207265656e7472616e742063616c6c00604082015260600190565b600082610afd57634e487b7160e01b81526012600452602481fd5b500490565b6000816000190483118215151615610b2857634e487b7160e01b81526011600452602481fd5b500290565b6001600160a01b0381168114610b4257600080fd5b5056fea264697066735822122097383c081fd19289b01529b5d8e7d500f3c934c843d01afafc07a6256940c11164736f6c63430008000033",
    "sourcePath": "c:/Users/HP/Desktop/Smart-Contracts-divydend/contracts/DivvydendPool.sol",
    "compiler": {
        "name": "solc",
        "version": "0.8.0+commit.c7dfd78e"
    },
    "functionHashes": {
        "DepositReward(uint256)": "19d619b1",
        "DivydendToken()": "184b0234",
        "admin()": "f851a440",
        "changeDivydendToken(address)": "8897b910",
        "changerewardToken(address)": "aac2383a",
        "rewardToken()": "f7c618c1",
        "setAdmin(address)": "704b6c02",
        "withdrawReward()": "c885bc58"
    },
    "gasEstimates": {
        "creation": {
            "codeDepositCost": "587800",
            "executionCost": "infinite",
            "totalCost": "infinite"
        },
        "external": {
            "DepositReward(uint256)": "infinite",
            "DivydendToken()": "1071",
            "admin()": "1136",
            "changeDivydendToken(address)": "infinite",
            "changerewardToken(address)": "infinite",
            "rewardToken()": "1114",
            "setAdmin(address)": "23172",
            "withdrawReward()": "infinite"
        }
    }
}